{
  "_format": "hh-sol-artifact-1",
  "contractName": "Escrow",
  "sourceName": "contracts/Escrow.sol",
  "abi": [
    {
      "inputs": [],
      "stateMutability": "nonpayable",
      "type": "constructor"
    },
    {
      "anonymous": false,
      "inputs": [
        {
          "indexed": true,
          "internalType": "address",
          "name": "buyer",
          "type": "address"
        },
        {
          "indexed": true,
          "internalType": "uint256",
          "name": "itemId",
          "type": "uint256"
        }
      ],
      "name": "Cancel",
      "type": "event"
    },
    {
      "anonymous": false,
      "inputs": [
        {
          "indexed": true,
          "internalType": "address",
          "name": "buyer",
          "type": "address"
        },
        {
          "indexed": true,
          "internalType": "uint256",
          "name": "itemId",
          "type": "uint256"
        }
      ],
      "name": "Complete",
      "type": "event"
    },
    {
      "anonymous": false,
      "inputs": [
        {
          "indexed": true,
          "internalType": "address",
          "name": "buyer",
          "type": "address"
        },
        {
          "indexed": true,
          "internalType": "uint256",
          "name": "itemId",
          "type": "uint256"
        },
        {
          "indexed": false,
          "internalType": "uint256",
          "name": "amount",
          "type": "uint256"
        },
        {
          "indexed": false,
          "internalType": "string",
          "name": "depositType",
          "type": "string"
        }
      ],
      "name": "Deposit",
      "type": "event"
    },
    {
      "anonymous": false,
      "inputs": [
        {
          "indexed": true,
          "internalType": "address",
          "name": "buyer",
          "type": "address"
        },
        {
          "indexed": true,
          "internalType": "address",
          "name": "seller",
          "type": "address"
        },
        {
          "indexed": false,
          "internalType": "uint256",
          "name": "itemId",
          "type": "uint256"
        },
        {
          "indexed": false,
          "internalType": "uint256",
          "name": "price",
          "type": "uint256"
        }
      ],
      "name": "NewEscrow",
      "type": "event"
    },
    {
      "inputs": [
        {
          "internalType": "uint256",
          "name": "itemId",
          "type": "uint256"
        }
      ],
      "name": "cancel",
      "outputs": [],
      "stateMutability": "nonpayable",
      "type": "function"
    },
    {
      "inputs": [
        {
          "internalType": "address",
          "name": "buyer",
          "type": "address"
        },
        {
          "internalType": "uint256",
          "name": "itemId",
          "type": "uint256"
        }
      ],
      "name": "completePurchase",
      "outputs": [],
      "stateMutability": "nonpayable",
      "type": "function"
    },
    {
      "inputs": [
        {
          "internalType": "uint256",
          "name": "itemId",
          "type": "uint256"
        }
      ],
      "name": "deposit",
      "outputs": [],
      "stateMutability": "payable",
      "type": "function"
    },
    {
      "inputs": [
        {
          "internalType": "uint256",
          "name": "",
          "type": "uint256"
        }
      ],
      "name": "itemStatus",
      "outputs": [
        {
          "internalType": "enum Escrow.EscrowStatus",
          "name": "",
          "type": "uint8"
        }
      ],
      "stateMutability": "view",
      "type": "function"
    },
    {
      "inputs": [
        {
          "internalType": "address",
          "name": "buyer",
          "type": "address"
        },
        {
          "internalType": "address",
          "name": "seller",
          "type": "address"
        },
        {
          "internalType": "address",
          "name": "arbiter",
          "type": "address"
        },
        {
          "internalType": "uint256",
          "name": "itemId",
          "type": "uint256"
        },
        {
          "internalType": "uint256",
          "name": "price",
          "type": "uint256"
        }
      ],
      "name": "newEscrow",
      "outputs": [],
      "stateMutability": "nonpayable",
      "type": "function"
    },
    {
      "inputs": [
        {
          "internalType": "bytes32",
          "name": "",
          "type": "bytes32"
        }
      ],
      "name": "purchases",
      "outputs": [
        {
          "internalType": "address",
          "name": "buyer",
          "type": "address"
        },
        {
          "internalType": "address",
          "name": "seller",
          "type": "address"
        },
        {
          "internalType": "address",
          "name": "arbiter",
          "type": "address"
        },
        {
          "internalType": "uint256",
          "name": "itemId",
          "type": "uint256"
        },
        {
          "internalType": "uint256",
          "name": "price",
          "type": "uint256"
        },
        {
          "internalType": "uint256",
          "name": "escrowBalance",
          "type": "uint256"
        },
        {
          "internalType": "enum Escrow.EscrowStatus",
          "name": "status",
          "type": "uint8"
        },
        {
          "internalType": "uint256",
          "name": "createdAt",
          "type": "uint256"
        },
        {
          "internalType": "uint256",
          "name": "depositedAt",
          "type": "uint256"
        },
        {
          "internalType": "uint256",
          "name": "completedAt",
          "type": "uint256"
        },
        {
          "internalType": "uint256",
          "name": "cancelledAt",
          "type": "uint256"
        }
      ],
      "stateMutability": "view",
      "type": "function"
    },
    {
      "stateMutability": "payable",
      "type": "receive"
    }
  ],
  "bytecode": "0x6080604052348015600f57600080fd5b50611f498061001f6000396000f3fe6080604052600436106100595760003560e01c806340e58ee51461009e5780637ab8dbe9146100c75780638f32c88c1461010e578063abe95e9f1461014b578063aff17ce914610174578063b6b55f251461019d57610099565b36610099576040517f08c379a000000000000000000000000000000000000000000000000000000000815260040161009090611247565b60405180910390fd5b600080fd5b3480156100aa57600080fd5b506100c560048036038101906100c091906112a2565b6101b9565b005b3480156100d357600080fd5b506100ee60048036038101906100e99190611305565b610598565b6040516101059b9a999897969594939291906113f9565b60405180910390f35b34801561011a57600080fd5b50610135600480360381019061013091906112a2565b61065f565b60405161014291906114a4565b60405180910390f35b34801561015757600080fd5b50610172600480360381019061016d91906114eb565b61067f565b005b34801561018057600080fd5b5061019b6004803603810190610196919061152b565b610956565b005b6101b760048036038101906101b291906112a2565b610e69565b005b60006101c533836111b7565b9050600080600083815260200190815260200160002090508060000160009054906101000a900473ffffffffffffffffffffffffffffffffffffffff1673ffffffffffffffffffffffffffffffffffffffff163373ffffffffffffffffffffffffffffffffffffffff161461026f576040517f08c379a000000000000000000000000000000000000000000000000000000000815260040161026690611618565b60405180910390fd5b6001600581111561028357610282611382565b5b8160060160009054906101000a900460ff1660058111156102a7576102a6611382565b5b14806102e85750600360058111156102c2576102c1611382565b5b8160060160009054906101000a900460ff1660058111156102e6576102e5611382565b5b145b8061032857506002600581111561030257610301611382565b5b8160060160009054906101000a900460ff16600581111561032657610325611382565b5b145b610367576040517f08c379a000000000000000000000000000000000000000000000000000000000815260040161035e90611684565b60405180910390fd5b62015180816008015461037a91906116d3565b42116103bb576040517f08c379a00000000000000000000000000000000000000000000000000000000081526004016103b290611779565b60405180910390fd5b600360058111156103cf576103ce611382565b5b8160060160009054906101000a900460ff1660058111156103f3576103f2611382565b5b148061043457506002600581111561040e5761040d611382565b5b8160060160009054906101000a900460ff16600581111561043257610431611382565b5b145b1561050f5760008160000160009054906101000a900473ffffffffffffffffffffffffffffffffffffffff1673ffffffffffffffffffffffffffffffffffffffff168260050154604051610487906117ca565b60006040518083038185875af1925050503d80600081146104c4576040519150601f19603f3d011682016040523d82523d6000602084013e6104c9565b606091505b505090508061050d576040517f08c379a00000000000000000000000000000000000000000000000000000000081526004016105049061182b565b60405180910390fd5b505b60058160060160006101000a81548160ff0219169083600581111561053757610536611382565b5b0217905550600081600501819055504281600a0181905550823373ffffffffffffffffffffffffffffffffffffffff167f27f83af92b39768b17fe0c8d6922452702717efb8626d97e7a754e0b27d4f6d260405160405180910390a3505050565b60006020528060005260406000206000915090508060000160009054906101000a900473ffffffffffffffffffffffffffffffffffffffff16908060010160009054906101000a900473ffffffffffffffffffffffffffffffffffffffff16908060020160009054906101000a900473ffffffffffffffffffffffffffffffffffffffff16908060030154908060040154908060050154908060060160009054906101000a900460ff169080600701549080600801549080600901549080600a015490508b565b60016020528060005260406000206000915054906101000a900460ff1681565b600061068b83836111b7565b9050600080600083815260200190815260200160002090508060020160009054906101000a900473ffffffffffffffffffffffffffffffffffffffff1673ffffffffffffffffffffffffffffffffffffffff163373ffffffffffffffffffffffffffffffffffffffff1614610735576040517f08c379a000000000000000000000000000000000000000000000000000000000815260040161072c906118bd565b60405180910390fd5b6003600581111561074957610748611382565b5b8160060160009054906101000a900460ff16600581111561076d5761076c611382565b5b146107ad576040517f08c379a00000000000000000000000000000000000000000000000000000000081526004016107a490611684565b60405180910390fd5b80600501548160040154146107f7576040517f08c379a00000000000000000000000000000000000000000000000000000000081526004016107ee90611929565b60405180910390fd5b60008160010160009054906101000a900473ffffffffffffffffffffffffffffffffffffffff1673ffffffffffffffffffffffffffffffffffffffff168260050154604051610845906117ca565b60006040518083038185875af1925050503d8060008114610882576040519150601f19603f3d011682016040523d82523d6000602084013e610887565b606091505b50509050806108cb576040517f08c379a00000000000000000000000000000000000000000000000000000000081526004016108c29061182b565b60405180910390fd5b60048260060160006101000a81548160ff021916908360058111156108f3576108f2611382565b5b021790555060008260050181905550428260090181905550838573ffffffffffffffffffffffffffffffffffffffff167fa4c10083eeef463fdb27c1bd6836fc0310dc50589b1b9695a97b78b00a1436ac60405160405180910390a35050505050565b6000600581111561096a57610969611382565b5b6001600084815260200190815260200160002060009054906101000a900460ff16600581111561099d5761099c611382565b5b146109dd576040517f08c379a00000000000000000000000000000000000000000000000000000000081526004016109d490611995565b60405180910390fd5b600073ffffffffffffffffffffffffffffffffffffffff168573ffffffffffffffffffffffffffffffffffffffff1603610a4c576040517f08c379a0000000000000000000000000000000000000000000000000000000008152600401610a4390611a01565b60405180910390fd5b600073ffffffffffffffffffffffffffffffffffffffff168473ffffffffffffffffffffffffffffffffffffffff1603610abb576040517f08c379a0000000000000000000000000000000000000000000000000000000008152600401610ab290611a6d565b60405180910390fd5b600073ffffffffffffffffffffffffffffffffffffffff168373ffffffffffffffffffffffffffffffffffffffff1603610b2a576040517f08c379a0000000000000000000000000000000000000000000000000000000008152600401610b2190611ad9565b60405180910390fd5b60008111610b6d576040517f08c379a0000000000000000000000000000000000000000000000000000000008152600401610b6490611b45565b60405180910390fd5b6000610b7986846111b7565b9050600080600083815260200190815260200160002090508473ffffffffffffffffffffffffffffffffffffffff163373ffffffffffffffffffffffffffffffffffffffff161480610bf657508673ffffffffffffffffffffffffffffffffffffffff163373ffffffffffffffffffffffffffffffffffffffff16145b610c35576040517f08c379a0000000000000000000000000000000000000000000000000000000008152600401610c2c90611bd7565b60405180910390fd5b60006005811115610c4957610c48611382565b5b8160060160009054906101000a900460ff166005811115610c6d57610c6c611382565b5b14610cad576040517f08c379a0000000000000000000000000000000000000000000000000000000008152600401610ca490611c43565b60405180910390fd5b868160000160006101000a81548173ffffffffffffffffffffffffffffffffffffffff021916908373ffffffffffffffffffffffffffffffffffffffff160217905550858160010160006101000a81548173ffffffffffffffffffffffffffffffffffffffff021916908373ffffffffffffffffffffffffffffffffffffffff160217905550848160020160006101000a81548173ffffffffffffffffffffffffffffffffffffffff021916908373ffffffffffffffffffffffffffffffffffffffff16021790555083816003018190555082816004018190555060018160060160006101000a81548160ff02191690836005811115610db057610daf611382565b5b0217905550428160070181905550600180600086815260200190815260200160002060006101000a81548160ff02191690836005811115610df457610df3611382565b5b02179055508573ffffffffffffffffffffffffffffffffffffffff168773ffffffffffffffffffffffffffffffffffffffff167f8f887f7ce980b2599e5c556b8137cd1388b84b8e85ec480731fa846b54bbc6338686604051610e58929190611c63565b60405180910390a350505050505050565b6000610e7533836111b7565b9050600080600083815260200190815260200160002090508060000160009054906101000a900473ffffffffffffffffffffffffffffffffffffffff1673ffffffffffffffffffffffffffffffffffffffff163373ffffffffffffffffffffffffffffffffffffffff1614610f1f576040517f08c379a0000000000000000000000000000000000000000000000000000000008152600401610f1690611cd8565b60405180910390fd5b60016005811115610f3357610f32611382565b5b8160060160009054906101000a900460ff166005811115610f5757610f56611382565b5b1480610f98575060026005811115610f7257610f71611382565b5b8160060160009054906101000a900460ff166005811115610f9657610f95611382565b5b145b610fd7576040517f08c379a0000000000000000000000000000000000000000000000000000000008152600401610fce90611684565b60405180910390fd5b8060040154348260050154610fec91906116d3565b111561102d576040517f08c379a000000000000000000000000000000000000000000000000000000000815260040161102490611d44565b60405180910390fd5b60003411611070576040517f08c379a000000000000000000000000000000000000000000000000000000000815260040161106790611dd6565b60405180910390fd5b3481600501600082825461108491906116d3565b92505081905550806004015481600501540361111b5760038160060160006101000a81548160ff021916908360058111156110c2576110c1611382565b5b0217905550823373ffffffffffffffffffffffffffffffffffffffff167fc3e7b26244f37ad8e358393dbc82881ada73f132a6b54c7624e72a6792f797683460405161110e9190611e42565b60405180910390a36111a9565b8060040154816005015410156111a85760028160060160006101000a81548160ff0219169083600581111561115357611152611382565b5b0217905550823373ffffffffffffffffffffffffffffffffffffffff167fc3e7b26244f37ad8e358393dbc82881ada73f132a6b54c7624e72a6792f797683460405161119f9190611ebc565b60405180910390a35b5b428160080181905550505050565b600082826040516020016111cc929190611eea565b60405160208183030381529060405280519060200120905092915050565b600082825260208201905092915050565b7f446972656374206465706f73697473206e6f7420616c6c6f7765640000000000600082015250565b6000611231601b836111ea565b915061123c826111fb565b602082019050919050565b6000602082019050818103600083015261126081611224565b9050919050565b600080fd5b6000819050919050565b61127f8161126c565b811461128a57600080fd5b50565b60008135905061129c81611276565b92915050565b6000602082840312156112b8576112b7611267565b5b60006112c68482850161128d565b91505092915050565b6000819050919050565b6112e2816112cf565b81146112ed57600080fd5b50565b6000813590506112ff816112d9565b92915050565b60006020828403121561131b5761131a611267565b5b6000611329848285016112f0565b91505092915050565b600073ffffffffffffffffffffffffffffffffffffffff82169050919050565b600061135d82611332565b9050919050565b61136d81611352565b82525050565b61137c8161126c565b82525050565b7f4e487b7100000000000000000000000000000000000000000000000000000000600052602160045260246000fd5b600681106113c2576113c1611382565b5b50565b60008190506113d3826113b1565b919050565b60006113e3826113c5565b9050919050565b6113f3816113d8565b82525050565b60006101608201905061140f600083018e611364565b61141c602083018d611364565b611429604083018c611364565b611436606083018b611373565b611443608083018a611373565b61145060a0830189611373565b61145d60c08301886113ea565b61146a60e0830187611373565b611478610100830186611373565b611486610120830185611373565b611494610140830184611373565b9c9b505050505050505050505050565b60006020820190506114b960008301846113ea565b92915050565b6114c881611352565b81146114d357600080fd5b50565b6000813590506114e5816114bf565b92915050565b6000806040838503121561150257611501611267565b5b6000611510858286016114d6565b92505060206115218582860161128d565b9150509250929050565b600080600080600060a0868803121561154757611546611267565b5b6000611555888289016114d6565b9550506020611566888289016114d6565b9450506040611577888289016114d6565b93505060606115888882890161128d565b92505060806115998882890161128d565b9150509295509295909350565b7f4f6e6c792062757965722063616e20726571756573742063616e63656c6c617460008201527f696f6e0000000000000000000000000000000000000000000000000000000000602082015250565b60006116026023836111ea565b915061160d826115a6565b604082019050919050565b60006020820190508181036000830152611631816115f5565b9050919050565b7f457363726f77206e6f7420696e20636f72726563742073746174650000000000600082015250565b600061166e601b836111ea565b915061167982611638565b602082019050919050565b6000602082019050818103600083015261169d81611661565b9050919050565b7f4e487b7100000000000000000000000000000000000000000000000000000000600052601160045260246000fd5b60006116de8261126c565b91506116e98361126c565b9250828201905080821115611701576117006116a4565b5b92915050565b7f43616e63656c6c6174696f6e206e6f7420616c6c6f7765642077697468696e2060008201527f323420686f757273206f66206465706f73697400000000000000000000000000602082015250565b60006117636033836111ea565b915061176e82611707565b604082019050919050565b6000602082019050818103600083015261179281611756565b9050919050565b600081905092915050565b50565b60006117b4600083611799565b91506117bf826117a4565b600082019050919050565b60006117d5826117a7565b9150819050919050565b7f5472616e73666572206661696c65640000000000000000000000000000000000600082015250565b6000611815600f836111ea565b9150611820826117df565b602082019050919050565b6000602082019050818103600083015261184481611808565b9050919050565b7f4f6e6c7920617262697465722063616e20636f6d706c6574652074686520707560008201527f7263686173650000000000000000000000000000000000000000000000000000602082015250565b60006118a76026836111ea565b91506118b28261184b565b604082019050919050565b600060208201905081810360008301526118d68161189a565b9050919050565b7f507269636520616e642062616c616e6365206d69736d61746368000000000000600082015250565b6000611913601a836111ea565b915061191e826118dd565b602082019050919050565b6000602082019050818103600083015261194281611906565b9050919050565b7f4974656d20616c726561647920696e20657363726f7700000000000000000000600082015250565b600061197f6016836111ea565b915061198a82611949565b602082019050919050565b600060208201905081810360008301526119ae81611972565b9050919050565b7f496e76616c696420627579657200000000000000000000000000000000000000600082015250565b60006119eb600d836111ea565b91506119f6826119b5565b602082019050919050565b60006020820190508181036000830152611a1a816119de565b9050919050565b7f496e76616c69642073656c6c6572000000000000000000000000000000000000600082015250565b6000611a57600e836111ea565b9150611a6282611a21565b602082019050919050565b60006020820190508181036000830152611a8681611a4a565b9050919050565b7f496e76616c696420617262697465720000000000000000000000000000000000600082015250565b6000611ac3600f836111ea565b9150611ace82611a8d565b602082019050919050565b60006020820190508181036000830152611af281611ab6565b9050919050565b7f5072696365206d7573742062652067726561746572207468616e207a65726f00600082015250565b6000611b2f601f836111ea565b9150611b3a82611af9565b602082019050919050565b60006020820190508181036000830152611b5e81611b22565b9050919050565b7f4f6e6c792061726269746572206f722062757965722063616e2063726561746560008201527f20657363726f7700000000000000000000000000000000000000000000000000602082015250565b6000611bc16027836111ea565b9150611bcc82611b65565b604082019050919050565b60006020820190508181036000830152611bf081611bb4565b9050919050565b7f457363726f7720616c7265616479206372656174656400000000000000000000600082015250565b6000611c2d6016836111ea565b9150611c3882611bf7565b602082019050919050565b60006020820190508181036000830152611c5c81611c20565b9050919050565b6000604082019050611c786000830185611373565b611c856020830184611373565b9392505050565b7f4f6e6c79207468652062757965722063616e206465706f736974000000000000600082015250565b6000611cc2601a836111ea565b9150611ccd82611c8c565b602082019050919050565b60006020820190508181036000830152611cf181611cb5565b9050919050565b7f4465706f73697420657863656564732070726963650000000000000000000000600082015250565b6000611d2e6015836111ea565b9150611d3982611cf8565b602082019050919050565b60006020820190508181036000830152611d5d81611d21565b9050919050565b7f4465706f736974206d7573742062652067726561746572207468616e207a657260008201527f6f00000000000000000000000000000000000000000000000000000000000000602082015250565b6000611dc06021836111ea565b9150611dcb82611d64565b604082019050919050565b60006020820190508181036000830152611def81611db3565b9050919050565b7f636f6d706c657465000000000000000000000000000000000000000000000000600082015250565b6000611e2c6008836111ea565b9150611e3782611df6565b602082019050919050565b6000604082019050611e576000830184611373565b8181036020830152611e6881611e1f565b905092915050565b7f7061727469616c00000000000000000000000000000000000000000000000000600082015250565b6000611ea66007836111ea565b9150611eb182611e70565b602082019050919050565b6000604082019050611ed16000830184611373565b8181036020830152611ee281611e99565b905092915050565b6000604082019050611eff6000830185611364565b611f0c6020830184611373565b939250505056fea2646970667358221220cf2e897179010f0aa2bb2f6e722d4cee016490100bb9d47bac0dfb54be06811e64736f6c634300081c0033",
  "linkReferences": {},
  "deployedLinkReferences": {}
}