{
  "_format": "hh-sol-artifact-1",
  "contractName": "Escrow",
  "sourceName": "contracts/Escrow.sol",
  "abi": [
    {
      "inputs": [],
      "stateMutability": "nonpayable",
      "type": "constructor"
    },
    {
      "anonymous": false,
      "inputs": [
        {
          "indexed": true,
          "internalType": "address",
          "name": "buyer",
          "type": "address"
        },
        {
          "indexed": true,
          "internalType": "uint256",
          "name": "itemId",
          "type": "uint256"
        }
      ],
      "name": "Cancel",
      "type": "event"
    },
    {
      "anonymous": false,
      "inputs": [
        {
          "indexed": true,
          "internalType": "address",
          "name": "buyer",
          "type": "address"
        },
        {
          "indexed": true,
          "internalType": "uint256",
          "name": "itemId",
          "type": "uint256"
        }
      ],
      "name": "Complete",
      "type": "event"
    },
    {
      "anonymous": false,
      "inputs": [
        {
          "indexed": true,
          "internalType": "address",
          "name": "buyer",
          "type": "address"
        },
        {
          "indexed": true,
          "internalType": "uint256",
          "name": "itemId",
          "type": "uint256"
        },
        {
          "indexed": false,
          "internalType": "uint256",
          "name": "amount",
          "type": "uint256"
        },
        {
          "indexed": false,
          "internalType": "string",
          "name": "depositType",
          "type": "string"
        }
      ],
      "name": "Deposit",
      "type": "event"
    },
    {
      "anonymous": false,
      "inputs": [
        {
          "indexed": true,
          "internalType": "address",
          "name": "buyer",
          "type": "address"
        },
        {
          "indexed": true,
          "internalType": "address",
          "name": "seller",
          "type": "address"
        },
        {
          "indexed": false,
          "internalType": "uint256",
          "name": "itemId",
          "type": "uint256"
        },
        {
          "indexed": false,
          "internalType": "uint256",
          "name": "price",
          "type": "uint256"
        }
      ],
      "name": "NewEscrow",
      "type": "event"
    },
    {
      "inputs": [
        {
          "internalType": "uint256",
          "name": "itemId",
          "type": "uint256"
        }
      ],
      "name": "cancel",
      "outputs": [],
      "stateMutability": "nonpayable",
      "type": "function"
    },
    {
      "inputs": [
        {
          "internalType": "address",
          "name": "buyer",
          "type": "address"
        },
        {
          "internalType": "uint256",
          "name": "itemId",
          "type": "uint256"
        }
      ],
      "name": "completePurchase",
      "outputs": [],
      "stateMutability": "nonpayable",
      "type": "function"
    },
    {
      "inputs": [
        {
          "internalType": "uint256",
          "name": "itemId",
          "type": "uint256"
        }
      ],
      "name": "deposit",
      "outputs": [],
      "stateMutability": "payable",
      "type": "function"
    },
    {
      "inputs": [
        {
          "internalType": "address",
          "name": "buyer",
          "type": "address"
        },
        {
          "internalType": "address",
          "name": "seller",
          "type": "address"
        },
        {
          "internalType": "address",
          "name": "arbiter",
          "type": "address"
        },
        {
          "internalType": "uint256",
          "name": "itemId",
          "type": "uint256"
        },
        {
          "internalType": "uint256",
          "name": "price",
          "type": "uint256"
        }
      ],
      "name": "newEscrow",
      "outputs": [],
      "stateMutability": "nonpayable",
      "type": "function"
    },
    {
      "inputs": [
        {
          "internalType": "bytes32",
          "name": "",
          "type": "bytes32"
        }
      ],
      "name": "purchases",
      "outputs": [
        {
          "internalType": "address",
          "name": "buyer",
          "type": "address"
        },
        {
          "internalType": "address",
          "name": "seller",
          "type": "address"
        },
        {
          "internalType": "address",
          "name": "arbiter",
          "type": "address"
        },
        {
          "internalType": "uint256",
          "name": "itemId",
          "type": "uint256"
        },
        {
          "internalType": "uint256",
          "name": "price",
          "type": "uint256"
        },
        {
          "internalType": "uint256",
          "name": "escrowBalance",
          "type": "uint256"
        },
        {
          "internalType": "enum Escrow.EscrowStatus",
          "name": "status",
          "type": "uint8"
        },
        {
          "internalType": "uint256",
          "name": "createdAt",
          "type": "uint256"
        },
        {
          "internalType": "uint256",
          "name": "depositedAt",
          "type": "uint256"
        },
        {
          "internalType": "uint256",
          "name": "completedAt",
          "type": "uint256"
        },
        {
          "internalType": "uint256",
          "name": "cancelledAt",
          "type": "uint256"
        }
      ],
      "stateMutability": "view",
      "type": "function"
    },
    {
      "stateMutability": "payable",
      "type": "receive"
    }
  ],
  "bytecode": "0x6080604052348015600f57600080fd5b50611d988061001f6000396000f3fe60806040526004361061004e5760003560e01c806340e58ee5146100935780637ab8dbe9146100bc578063abe95e9f14610103578063aff17ce91461012c578063b6b55f25146101555761008e565b3661008e576040517f08c379a00000000000000000000000000000000000000000000000000000000081526004016100859061111d565b60405180910390fd5b600080fd5b34801561009f57600080fd5b506100ba60048036038101906100b59190611178565b610171565b005b3480156100c857600080fd5b506100e360048036038101906100de91906111db565b610550565b6040516100fa9b9a999897969594939291906112cf565b60405180910390f35b34801561010f57600080fd5b5061012a600480360381019061012591906113a6565b610617565b005b34801561013857600080fd5b50610153600480360381019061014e91906113e6565b6108ee565b005b61016f600480360381019061016a9190611178565b610d3f565b005b600061017d338361108d565b9050600080600083815260200190815260200160002090508060000160009054906101000a900473ffffffffffffffffffffffffffffffffffffffff1673ffffffffffffffffffffffffffffffffffffffff163373ffffffffffffffffffffffffffffffffffffffff1614610227576040517f08c379a000000000000000000000000000000000000000000000000000000000815260040161021e906114d3565b60405180910390fd5b6001600581111561023b5761023a611258565b5b8160060160009054906101000a900460ff16600581111561025f5761025e611258565b5b14806102a057506003600581111561027a57610279611258565b5b8160060160009054906101000a900460ff16600581111561029e5761029d611258565b5b145b806102e05750600260058111156102ba576102b9611258565b5b8160060160009054906101000a900460ff1660058111156102de576102dd611258565b5b145b61031f576040517f08c379a00000000000000000000000000000000000000000000000000000000081526004016103169061153f565b60405180910390fd5b620151808160080154610332919061158e565b4211610373576040517f08c379a000000000000000000000000000000000000000000000000000000000815260040161036a90611634565b60405180910390fd5b6003600581111561038757610386611258565b5b8160060160009054906101000a900460ff1660058111156103ab576103aa611258565b5b14806103ec5750600260058111156103c6576103c5611258565b5b8160060160009054906101000a900460ff1660058111156103ea576103e9611258565b5b145b156104c75760008160000160009054906101000a900473ffffffffffffffffffffffffffffffffffffffff1673ffffffffffffffffffffffffffffffffffffffff16826005015460405161043f90611685565b60006040518083038185875af1925050503d806000811461047c576040519150601f19603f3d011682016040523d82523d6000602084013e610481565b606091505b50509050806104c5576040517f08c379a00000000000000000000000000000000000000000000000000000000081526004016104bc906116e6565b60405180910390fd5b505b60058160060160006101000a81548160ff021916908360058111156104ef576104ee611258565b5b0217905550600081600501819055504281600a0181905550823373ffffffffffffffffffffffffffffffffffffffff167f27f83af92b39768b17fe0c8d6922452702717efb8626d97e7a754e0b27d4f6d260405160405180910390a3505050565b60006020528060005260406000206000915090508060000160009054906101000a900473ffffffffffffffffffffffffffffffffffffffff16908060010160009054906101000a900473ffffffffffffffffffffffffffffffffffffffff16908060020160009054906101000a900473ffffffffffffffffffffffffffffffffffffffff16908060030154908060040154908060050154908060060160009054906101000a900460ff169080600701549080600801549080600901549080600a015490508b565b6000610623838361108d565b9050600080600083815260200190815260200160002090508060020160009054906101000a900473ffffffffffffffffffffffffffffffffffffffff1673ffffffffffffffffffffffffffffffffffffffff163373ffffffffffffffffffffffffffffffffffffffff16146106cd576040517f08c379a00000000000000000000000000000000000000000000000000000000081526004016106c490611778565b60405180910390fd5b600360058111156106e1576106e0611258565b5b8160060160009054906101000a900460ff16600581111561070557610704611258565b5b14610745576040517f08c379a000000000000000000000000000000000000000000000000000000000815260040161073c9061153f565b60405180910390fd5b806005015481600401541461078f576040517f08c379a0000000000000000000000000000000000000000000000000000000008152600401610786906117e4565b60405180910390fd5b60008160010160009054906101000a900473ffffffffffffffffffffffffffffffffffffffff1673ffffffffffffffffffffffffffffffffffffffff1682600501546040516107dd90611685565b60006040518083038185875af1925050503d806000811461081a576040519150601f19603f3d011682016040523d82523d6000602084013e61081f565b606091505b5050905080610863576040517f08c379a000000000000000000000000000000000000000000000000000000000815260040161085a906116e6565b60405180910390fd5b60048260060160006101000a81548160ff0219169083600581111561088b5761088a611258565b5b021790555060008260050181905550428260090181905550838573ffffffffffffffffffffffffffffffffffffffff167fa4c10083eeef463fdb27c1bd6836fc0310dc50589b1b9695a97b78b00a1436ac60405160405180910390a35050505050565b600073ffffffffffffffffffffffffffffffffffffffff168573ffffffffffffffffffffffffffffffffffffffff160361095d576040517f08c379a000000000000000000000000000000000000000000000000000000000815260040161095490611850565b60405180910390fd5b600073ffffffffffffffffffffffffffffffffffffffff168473ffffffffffffffffffffffffffffffffffffffff16036109cc576040517f08c379a00000000000000000000000000000000000000000000000000000000081526004016109c3906118bc565b60405180910390fd5b600073ffffffffffffffffffffffffffffffffffffffff168373ffffffffffffffffffffffffffffffffffffffff1603610a3b576040517f08c379a0000000000000000000000000000000000000000000000000000000008152600401610a3290611928565b60405180910390fd5b60008111610a7e576040517f08c379a0000000000000000000000000000000000000000000000000000000008152600401610a7590611994565b60405180910390fd5b6000610a8a868461108d565b9050600080600083815260200190815260200160002090508473ffffffffffffffffffffffffffffffffffffffff163373ffffffffffffffffffffffffffffffffffffffff161480610b0757508673ffffffffffffffffffffffffffffffffffffffff163373ffffffffffffffffffffffffffffffffffffffff16145b610b46576040517f08c379a0000000000000000000000000000000000000000000000000000000008152600401610b3d90611a26565b60405180910390fd5b60006005811115610b5a57610b59611258565b5b8160060160009054906101000a900460ff166005811115610b7e57610b7d611258565b5b14610bbe576040517f08c379a0000000000000000000000000000000000000000000000000000000008152600401610bb590611a92565b60405180910390fd5b868160000160006101000a81548173ffffffffffffffffffffffffffffffffffffffff021916908373ffffffffffffffffffffffffffffffffffffffff160217905550858160010160006101000a81548173ffffffffffffffffffffffffffffffffffffffff021916908373ffffffffffffffffffffffffffffffffffffffff160217905550848160020160006101000a81548173ffffffffffffffffffffffffffffffffffffffff021916908373ffffffffffffffffffffffffffffffffffffffff16021790555083816003018190555082816004018190555060018160060160006101000a81548160ff02191690836005811115610cc157610cc0611258565b5b02179055504281600701819055508573ffffffffffffffffffffffffffffffffffffffff168773ffffffffffffffffffffffffffffffffffffffff167f8f887f7ce980b2599e5c556b8137cd1388b84b8e85ec480731fa846b54bbc6338686604051610d2e929190611ab2565b60405180910390a350505050505050565b6000610d4b338361108d565b9050600080600083815260200190815260200160002090508060000160009054906101000a900473ffffffffffffffffffffffffffffffffffffffff1673ffffffffffffffffffffffffffffffffffffffff163373ffffffffffffffffffffffffffffffffffffffff1614610df5576040517f08c379a0000000000000000000000000000000000000000000000000000000008152600401610dec90611b27565b60405180910390fd5b60016005811115610e0957610e08611258565b5b8160060160009054906101000a900460ff166005811115610e2d57610e2c611258565b5b1480610e6e575060026005811115610e4857610e47611258565b5b8160060160009054906101000a900460ff166005811115610e6c57610e6b611258565b5b145b610ead576040517f08c379a0000000000000000000000000000000000000000000000000000000008152600401610ea49061153f565b60405180910390fd5b8060040154348260050154610ec2919061158e565b1115610f03576040517f08c379a0000000000000000000000000000000000000000000000000000000008152600401610efa90611b93565b60405180910390fd5b60003411610f46576040517f08c379a0000000000000000000000000000000000000000000000000000000008152600401610f3d90611c25565b60405180910390fd5b34816005016000828254610f5a919061158e565b925050819055508060040154816005015403610ff15760038160060160006101000a81548160ff02191690836005811115610f9857610f97611258565b5b0217905550823373ffffffffffffffffffffffffffffffffffffffff167fc3e7b26244f37ad8e358393dbc82881ada73f132a6b54c7624e72a6792f7976834604051610fe49190611c91565b60405180910390a361107f565b80600401548160050154101561107e5760028160060160006101000a81548160ff0219169083600581111561102957611028611258565b5b0217905550823373ffffffffffffffffffffffffffffffffffffffff167fc3e7b26244f37ad8e358393dbc82881ada73f132a6b54c7624e72a6792f79768346040516110759190611d0b565b60405180910390a35b5b428160080181905550505050565b600082826040516020016110a2929190611d39565b60405160208183030381529060405280519060200120905092915050565b600082825260208201905092915050565b7f446972656374206465706f73697473206e6f7420616c6c6f7765640000000000600082015250565b6000611107601b836110c0565b9150611112826110d1565b602082019050919050565b60006020820190508181036000830152611136816110fa565b9050919050565b600080fd5b6000819050919050565b61115581611142565b811461116057600080fd5b50565b6000813590506111728161114c565b92915050565b60006020828403121561118e5761118d61113d565b5b600061119c84828501611163565b91505092915050565b6000819050919050565b6111b8816111a5565b81146111c357600080fd5b50565b6000813590506111d5816111af565b92915050565b6000602082840312156111f1576111f061113d565b5b60006111ff848285016111c6565b91505092915050565b600073ffffffffffffffffffffffffffffffffffffffff82169050919050565b600061123382611208565b9050919050565b61124381611228565b82525050565b61125281611142565b82525050565b7f4e487b7100000000000000000000000000000000000000000000000000000000600052602160045260246000fd5b6006811061129857611297611258565b5b50565b60008190506112a982611287565b919050565b60006112b98261129b565b9050919050565b6112c9816112ae565b82525050565b6000610160820190506112e5600083018e61123a565b6112f2602083018d61123a565b6112ff604083018c61123a565b61130c606083018b611249565b611319608083018a611249565b61132660a0830189611249565b61133360c08301886112c0565b61134060e0830187611249565b61134e610100830186611249565b61135c610120830185611249565b61136a610140830184611249565b9c9b505050505050505050505050565b61138381611228565b811461138e57600080fd5b50565b6000813590506113a08161137a565b92915050565b600080604083850312156113bd576113bc61113d565b5b60006113cb85828601611391565b92505060206113dc85828601611163565b9150509250929050565b600080600080600060a086880312156114025761140161113d565b5b600061141088828901611391565b955050602061142188828901611391565b945050604061143288828901611391565b935050606061144388828901611163565b925050608061145488828901611163565b9150509295509295909350565b7f4f6e6c792062757965722063616e20726571756573742063616e63656c6c617460008201527f696f6e0000000000000000000000000000000000000000000000000000000000602082015250565b60006114bd6023836110c0565b91506114c882611461565b604082019050919050565b600060208201905081810360008301526114ec816114b0565b9050919050565b7f457363726f77206e6f7420696e20636f72726563742073746174650000000000600082015250565b6000611529601b836110c0565b9150611534826114f3565b602082019050919050565b600060208201905081810360008301526115588161151c565b9050919050565b7f4e487b7100000000000000000000000000000000000000000000000000000000600052601160045260246000fd5b600061159982611142565b91506115a483611142565b92508282019050808211156115bc576115bb61155f565b5b92915050565b7f43616e63656c6c6174696f6e206e6f7420616c6c6f7765642077697468696e2060008201527f323420686f757273206f66206465706f73697400000000000000000000000000602082015250565b600061161e6033836110c0565b9150611629826115c2565b604082019050919050565b6000602082019050818103600083015261164d81611611565b9050919050565b600081905092915050565b50565b600061166f600083611654565b915061167a8261165f565b600082019050919050565b600061169082611662565b9150819050919050565b7f5472616e73666572206661696c65640000000000000000000000000000000000600082015250565b60006116d0600f836110c0565b91506116db8261169a565b602082019050919050565b600060208201905081810360008301526116ff816116c3565b9050919050565b7f4f6e6c7920617262697465722063616e20636f6d706c6574652074686520707560008201527f7263686173650000000000000000000000000000000000000000000000000000602082015250565b60006117626026836110c0565b915061176d82611706565b604082019050919050565b6000602082019050818103600083015261179181611755565b9050919050565b7f507269636520616e642062616c616e6365206d69736d61746368000000000000600082015250565b60006117ce601a836110c0565b91506117d982611798565b602082019050919050565b600060208201905081810360008301526117fd816117c1565b9050919050565b7f496e76616c696420627579657200000000000000000000000000000000000000600082015250565b600061183a600d836110c0565b915061184582611804565b602082019050919050565b600060208201905081810360008301526118698161182d565b9050919050565b7f496e76616c69642073656c6c6572000000000000000000000000000000000000600082015250565b60006118a6600e836110c0565b91506118b182611870565b602082019050919050565b600060208201905081810360008301526118d581611899565b9050919050565b7f496e76616c696420617262697465720000000000000000000000000000000000600082015250565b6000611912600f836110c0565b915061191d826118dc565b602082019050919050565b6000602082019050818103600083015261194181611905565b9050919050565b7f5072696365206d7573742062652067726561746572207468616e207a65726f00600082015250565b600061197e601f836110c0565b915061198982611948565b602082019050919050565b600060208201905081810360008301526119ad81611971565b9050919050565b7f4f6e6c792061726269746572206f722062757965722063616e2063726561746560008201527f20657363726f7700000000000000000000000000000000000000000000000000602082015250565b6000611a106027836110c0565b9150611a1b826119b4565b604082019050919050565b60006020820190508181036000830152611a3f81611a03565b9050919050565b7f457363726f7720616c7265616479206372656174656400000000000000000000600082015250565b6000611a7c6016836110c0565b9150611a8782611a46565b602082019050919050565b60006020820190508181036000830152611aab81611a6f565b9050919050565b6000604082019050611ac76000830185611249565b611ad46020830184611249565b9392505050565b7f4f6e6c79207468652062757965722063616e206465706f736974000000000000600082015250565b6000611b11601a836110c0565b9150611b1c82611adb565b602082019050919050565b60006020820190508181036000830152611b4081611b04565b9050919050565b7f4465706f73697420657863656564732070726963650000000000000000000000600082015250565b6000611b7d6015836110c0565b9150611b8882611b47565b602082019050919050565b60006020820190508181036000830152611bac81611b70565b9050919050565b7f4465706f736974206d7573742062652067726561746572207468616e207a657260008201527f6f00000000000000000000000000000000000000000000000000000000000000602082015250565b6000611c0f6021836110c0565b9150611c1a82611bb3565b604082019050919050565b60006020820190508181036000830152611c3e81611c02565b9050919050565b7f636f6d706c657465000000000000000000000000000000000000000000000000600082015250565b6000611c7b6008836110c0565b9150611c8682611c45565b602082019050919050565b6000604082019050611ca66000830184611249565b8181036020830152611cb781611c6e565b905092915050565b7f7061727469616c00000000000000000000000000000000000000000000000000600082015250565b6000611cf56007836110c0565b9150611d0082611cbf565b602082019050919050565b6000604082019050611d206000830184611249565b8181036020830152611d3181611ce8565b905092915050565b6000604082019050611d4e600083018561123a565b611d5b6020830184611249565b939250505056fea264697066735822122062fe6f0553d128de47d1bf795b3c4c3b2aaec73333b77c5962f7f880be7ad70864736f6c634300081c0033",
  "linkReferences": {},
  "deployedLinkReferences": {}
}